{
  "_format": "hh-sol-artifact-1",
  "contractName": "SmartContractBook",
  "sourceName": "contracts/SmartContractBook.sol",
  "abi": [
    {
      "inputs": [],
      "stateMutability": "nonpayable",
      "type": "constructor"
    },
    {
      "anonymous": false,
      "inputs": [
        {
          "indexed": true,
          "internalType": "address",
          "name": "owner",
          "type": "address"
        },
        {
          "indexed": true,
          "internalType": "address",
          "name": "approved",
          "type": "address"
        },
        {
          "indexed": true,
          "internalType": "uint256",
          "name": "tokenId",
          "type": "uint256"
        }
      ],
      "name": "Approval",
      "type": "event"
    },
    {
      "anonymous": false,
      "inputs": [
        {
          "indexed": true,
          "internalType": "address",
          "name": "owner",
          "type": "address"
        },
        {
          "indexed": true,
          "internalType": "address",
          "name": "operator",
          "type": "address"
        },
        {
          "indexed": false,
          "internalType": "bool",
          "name": "approved",
          "type": "bool"
        }
      ],
      "name": "ApprovalForAll",
      "type": "event"
    },
    {
      "anonymous": false,
      "inputs": [
        {
          "indexed": true,
          "internalType": "bytes32",
          "name": "role",
          "type": "bytes32"
        },
        {
          "indexed": true,
          "internalType": "bytes32",
          "name": "previousAdminRole",
          "type": "bytes32"
        },
        {
          "indexed": true,
          "internalType": "bytes32",
          "name": "newAdminRole",
          "type": "bytes32"
        }
      ],
      "name": "RoleAdminChanged",
      "type": "event"
    },
    {
      "anonymous": false,
      "inputs": [
        {
          "indexed": true,
          "internalType": "bytes32",
          "name": "role",
          "type": "bytes32"
        },
        {
          "indexed": true,
          "internalType": "address",
          "name": "account",
          "type": "address"
        },
        {
          "indexed": true,
          "internalType": "address",
          "name": "sender",
          "type": "address"
        }
      ],
      "name": "RoleGranted",
      "type": "event"
    },
    {
      "anonymous": false,
      "inputs": [
        {
          "indexed": true,
          "internalType": "bytes32",
          "name": "role",
          "type": "bytes32"
        },
        {
          "indexed": true,
          "internalType": "address",
          "name": "account",
          "type": "address"
        },
        {
          "indexed": true,
          "internalType": "address",
          "name": "sender",
          "type": "address"
        }
      ],
      "name": "RoleRevoked",
      "type": "event"
    },
    {
      "anonymous": false,
      "inputs": [
        {
          "indexed": true,
          "internalType": "address",
          "name": "from",
          "type": "address"
        },
        {
          "indexed": true,
          "internalType": "address",
          "name": "to",
          "type": "address"
        },
        {
          "indexed": true,
          "internalType": "uint256",
          "name": "tokenId",
          "type": "uint256"
        }
      ],
      "name": "Transfer",
      "type": "event"
    },
    {
      "inputs": [],
      "name": "DEFAULT_ADMIN_ROLE",
      "outputs": [
        {
          "internalType": "bytes32",
          "name": "",
          "type": "bytes32"
        }
      ],
      "stateMutability": "view",
      "type": "function"
    },
    {
      "inputs": [],
      "name": "MINTER_ROLE",
      "outputs": [
        {
          "internalType": "bytes32",
          "name": "",
          "type": "bytes32"
        }
      ],
      "stateMutability": "view",
      "type": "function"
    },
    {
      "inputs": [
        {
          "internalType": "address",
          "name": "to",
          "type": "address"
        },
        {
          "internalType": "uint256",
          "name": "tokenId",
          "type": "uint256"
        }
      ],
      "name": "approve",
      "outputs": [],
      "stateMutability": "nonpayable",
      "type": "function"
    },
    {
      "inputs": [
        {
          "internalType": "address",
          "name": "owner",
          "type": "address"
        }
      ],
      "name": "balanceOf",
      "outputs": [
        {
          "internalType": "uint256",
          "name": "",
          "type": "uint256"
        }
      ],
      "stateMutability": "view",
      "type": "function"
    },
    {
      "inputs": [
        {
          "internalType": "address[]",
          "name": "to",
          "type": "address[]"
        }
      ],
      "name": "batchMint",
      "outputs": [],
      "stateMutability": "nonpayable",
      "type": "function"
    },
    {
      "inputs": [],
      "name": "description",
      "outputs": [
        {
          "internalType": "string",
          "name": "",
          "type": "string"
        }
      ],
      "stateMutability": "view",
      "type": "function"
    },
    {
      "inputs": [
        {
          "internalType": "uint256",
          "name": "tokenId",
          "type": "uint256"
        }
      ],
      "name": "getApproved",
      "outputs": [
        {
          "internalType": "address",
          "name": "",
          "type": "address"
        }
      ],
      "stateMutability": "view",
      "type": "function"
    },
    {
      "inputs": [
        {
          "internalType": "uint256",
          "name": "_tokenId",
          "type": "uint256"
        }
      ],
      "name": "getMetadata",
      "outputs": [
        {
          "components": [
            {
              "internalType": "address",
              "name": "owner",
              "type": "address"
            },
            {
              "internalType": "uint256",
              "name": "random",
              "type": "uint256"
            }
          ],
          "internalType": "struct SmartContractBook.Metadata",
          "name": "",
          "type": "tuple"
        }
      ],
      "stateMutability": "view",
      "type": "function"
    },
    {
      "inputs": [
        {
          "internalType": "bytes32",
          "name": "role",
          "type": "bytes32"
        }
      ],
      "name": "getRoleAdmin",
      "outputs": [
        {
          "internalType": "bytes32",
          "name": "",
          "type": "bytes32"
        }
      ],
      "stateMutability": "view",
      "type": "function"
    },
    {
      "inputs": [
        {
          "internalType": "bytes32",
          "name": "role",
          "type": "bytes32"
        },
        {
          "internalType": "address",
          "name": "account",
          "type": "address"
        }
      ],
      "name": "grantRole",
      "outputs": [],
      "stateMutability": "nonpayable",
      "type": "function"
    },
    {
      "inputs": [
        {
          "internalType": "bytes32",
          "name": "role",
          "type": "bytes32"
        },
        {
          "internalType": "address",
          "name": "account",
          "type": "address"
        }
      ],
      "name": "hasRole",
      "outputs": [
        {
          "internalType": "bool",
          "name": "",
          "type": "bool"
        }
      ],
      "stateMutability": "view",
      "type": "function"
    },
    {
      "inputs": [
        {
          "internalType": "address",
          "name": "owner",
          "type": "address"
        },
        {
          "internalType": "address",
          "name": "operator",
          "type": "address"
        }
      ],
      "name": "isApprovedForAll",
      "outputs": [
        {
          "internalType": "bool",
          "name": "",
          "type": "bool"
        }
      ],
      "stateMutability": "view",
      "type": "function"
    },
    {
      "inputs": [],
      "name": "name",
      "outputs": [
        {
          "internalType": "string",
          "name": "",
          "type": "string"
        }
      ],
      "stateMutability": "view",
      "type": "function"
    },
    {
      "inputs": [],
      "name": "nftName",
      "outputs": [
        {
          "internalType": "string",
          "name": "",
          "type": "string"
        }
      ],
      "stateMutability": "view",
      "type": "function"
    },
    {
      "inputs": [
        {
          "internalType": "uint256",
          "name": "tokenId",
          "type": "uint256"
        }
      ],
      "name": "ownerOf",
      "outputs": [
        {
          "internalType": "address",
          "name": "",
          "type": "address"
        }
      ],
      "stateMutability": "view",
      "type": "function"
    },
    {
      "inputs": [
        {
          "internalType": "bytes32",
          "name": "role",
          "type": "bytes32"
        },
        {
          "internalType": "address",
          "name": "account",
          "type": "address"
        }
      ],
      "name": "renounceRole",
      "outputs": [],
      "stateMutability": "nonpayable",
      "type": "function"
    },
    {
      "inputs": [
        {
          "internalType": "bytes32",
          "name": "role",
          "type": "bytes32"
        },
        {
          "internalType": "address",
          "name": "account",
          "type": "address"
        }
      ],
      "name": "revokeRole",
      "outputs": [],
      "stateMutability": "nonpayable",
      "type": "function"
    },
    {
      "inputs": [
        {
          "internalType": "address",
          "name": "to",
          "type": "address"
        }
      ],
      "name": "safeMint",
      "outputs": [],
      "stateMutability": "nonpayable",
      "type": "function"
    },
    {
      "inputs": [
        {
          "internalType": "address",
          "name": "from",
          "type": "address"
        },
        {
          "internalType": "address",
          "name": "to",
          "type": "address"
        },
        {
          "internalType": "uint256",
          "name": "tokenId",
          "type": "uint256"
        }
      ],
      "name": "safeTransferFrom",
      "outputs": [],
      "stateMutability": "nonpayable",
      "type": "function"
    },
    {
      "inputs": [
        {
          "internalType": "address",
          "name": "from",
          "type": "address"
        },
        {
          "internalType": "address",
          "name": "to",
          "type": "address"
        },
        {
          "internalType": "uint256",
          "name": "tokenId",
          "type": "uint256"
        },
        {
          "internalType": "bytes",
          "name": "data",
          "type": "bytes"
        }
      ],
      "name": "safeTransferFrom",
      "outputs": [],
      "stateMutability": "nonpayable",
      "type": "function"
    },
    {
      "inputs": [
        {
          "internalType": "address",
          "name": "operator",
          "type": "address"
        },
        {
          "internalType": "bool",
          "name": "approved",
          "type": "bool"
        }
      ],
      "name": "setApprovalForAll",
      "outputs": [],
      "stateMutability": "nonpayable",
      "type": "function"
    },
    {
      "inputs": [
        {
          "internalType": "bytes4",
          "name": "interfaceId",
          "type": "bytes4"
        }
      ],
      "name": "supportsInterface",
      "outputs": [
        {
          "internalType": "bool",
          "name": "",
          "type": "bool"
        }
      ],
      "stateMutability": "view",
      "type": "function"
    },
    {
      "inputs": [],
      "name": "symbol",
      "outputs": [
        {
          "internalType": "string",
          "name": "",
          "type": "string"
        }
      ],
      "stateMutability": "view",
      "type": "function"
    },
    {
      "inputs": [
        {
          "internalType": "uint256",
          "name": "index",
          "type": "uint256"
        }
      ],
      "name": "tokenByIndex",
      "outputs": [
        {
          "internalType": "uint256",
          "name": "",
          "type": "uint256"
        }
      ],
      "stateMutability": "view",
      "type": "function"
    },
    {
      "inputs": [
        {
          "internalType": "address",
          "name": "owner",
          "type": "address"
        },
        {
          "internalType": "uint256",
          "name": "index",
          "type": "uint256"
        }
      ],
      "name": "tokenOfOwnerByIndex",
      "outputs": [
        {
          "internalType": "uint256",
          "name": "",
          "type": "uint256"
        }
      ],
      "stateMutability": "view",
      "type": "function"
    },
    {
      "inputs": [
        {
          "internalType": "uint256",
          "name": "_tokenId",
          "type": "uint256"
        }
      ],
      "name": "tokenURI",
      "outputs": [
        {
          "internalType": "string",
          "name": "",
          "type": "string"
        }
      ],
      "stateMutability": "view",
      "type": "function"
    },
    {
      "inputs": [],
      "name": "totalSupply",
      "outputs": [
        {
          "internalType": "uint256",
          "name": "",
          "type": "uint256"
        }
      ],
      "stateMutability": "view",
      "type": "function"
    },
    {
      "inputs": [
        {
          "internalType": "address",
          "name": "from",
          "type": "address"
        },
        {
          "internalType": "address",
          "name": "to",
          "type": "address"
        },
        {
          "internalType": "uint256",
          "name": "tokenId",
          "type": "uint256"
        }
      ],
      "name": "transferFrom",
      "outputs": [],
      "stateMutability": "nonpayable",
      "type": "function"
    }
  ],
  "bytecode": "0x60806040523480156200001157600080fd5b506040518060400160405280600681526020017f5343426f6f6b00000000000000000000000000000000000000000000000000008152506040518060400160405280600381526020017f534342000000000000000000000000000000000000000000000000000000000081525081600090816200008f919062001242565b508060019081620000a1919062001242565b505050620000b96000801b33620001f760201b60201c565b620000eb7f9f2df0fed2c77648de5860a4cc508cd0818c85b8b8a1ab4ceeef8d981c8956a633620001f760201b60201c565b6000600290506000633b9aca00905060005b82811015620001ee576000818362000116919062001358565b905060405180604001604052803373ffffffffffffffffffffffffffffffffffffffff168152602001834260316200014f919062001393565b6200015b919062001393565b815250600c600083815260200190815260200160002060008201518160000160006101000a81548173ffffffffffffffffffffffffffffffffffffffff021916908373ffffffffffffffffffffffffffffffffffffffff16021790555060208201518160010155905050620001d73382620002e960201b60201c565b508080620001e590620013de565b915050620000fd565b505050620019cb565b6200020982826200030f60201b60201c565b620002e5576001600a600084815260200190815260200160002060000160008373ffffffffffffffffffffffffffffffffffffffff1673ffffffffffffffffffffffffffffffffffffffff16815260200190815260200160002060006101000a81548160ff0219169083151502179055506200028a6200037a60201b60201c565b73ffffffffffffffffffffffffffffffffffffffff168173ffffffffffffffffffffffffffffffffffffffff16837f2f8788117e7eff1d82e926ec794901d17c78024a50270940304540a733656f0d60405160405180910390a45b5050565b6200030b8282604051806020016040528060008152506200038260201b60201c565b5050565b6000600a600084815260200190815260200160002060000160008373ffffffffffffffffffffffffffffffffffffffff1673ffffffffffffffffffffffffffffffffffffffff16815260200190815260200160002060009054906101000a900460ff16905092915050565b600033905090565b620003948383620003f060201b60201c565b620003a960008484846200063660201b60201c565b620003eb576040517f08c379a0000000000000000000000000000000000000000000000000000000008152600401620003e290620014b2565b60405180910390fd5b505050565b600073ffffffffffffffffffffffffffffffffffffffff168273ffffffffffffffffffffffffffffffffffffffff160362000462576040517f08c379a0000000000000000000000000000000000000000000000000000000008152600401620004599062001524565b60405180910390fd5b6200047381620007df60201b60201c565b15620004b6576040517f08c379a0000000000000000000000000000000000000000000000000000000008152600401620004ad9062001596565b60405180910390fd5b620004cc6000838360016200082860201b60201c565b620004dd81620007df60201b60201c565b1562000520576040517f08c379a0000000000000000000000000000000000000000000000000000000008152600401620005179062001596565b60405180910390fd5b6001600360008473ffffffffffffffffffffffffffffffffffffffff1673ffffffffffffffffffffffffffffffffffffffff16815260200190815260200160002060008282540192505081905550816002600083815260200190815260200160002060006101000a81548173ffffffffffffffffffffffffffffffffffffffff021916908373ffffffffffffffffffffffffffffffffffffffff160217905550808273ffffffffffffffffffffffffffffffffffffffff16600073ffffffffffffffffffffffffffffffffffffffff167fddf252ad1be2c89b69c2b068fc378daa952ba7f163c4a11628f55a4df523b3ef60405160405180910390a462000632600083836001620008b960201b60201c565b5050565b6000620006648473ffffffffffffffffffffffffffffffffffffffff16620008bf60201b620012351760201c565b15620007d2578373ffffffffffffffffffffffffffffffffffffffff1663150b7a02620006966200037a60201b60201c565b8786866040518563ffffffff1660e01b8152600401620006ba9493929190620016a8565b6020604051808303816000875af1925050508015620006f957506040513d601f19601f82011682018060405250810190620006f691906200175e565b60015b62000781573d80600081146200072c576040519150601f19603f3d011682016040523d82523d6000602084013e62000731565b606091505b50600081510362000779576040517f08c379a00000000000000000000000000000000000000000000000000000000081526004016200077090620014b2565b60405180910390fd5b805181602001fd5b63150b7a0260e01b7bffffffffffffffffffffffffffffffffffffffffffffffffffffffff1916817bffffffffffffffffffffffffffffffffffffffffffffffffffffffff191614915050620007d7565b600190505b949350505050565b60008073ffffffffffffffffffffffffffffffffffffffff166200080983620008e260201b60201c565b73ffffffffffffffffffffffffffffffffffffffff1614159050919050565b600073ffffffffffffffffffffffffffffffffffffffff168473ffffffffffffffffffffffffffffffffffffffff16146200089a576040517f08c379a00000000000000000000000000000000000000000000000000000000081526004016200089190620017e0565b60405180910390fd5b620008b3848484846200091f60201b620012581760201c565b50505050565b50505050565b6000808273ffffffffffffffffffffffffffffffffffffffff163b119050919050565b60006002600083815260200190815260200160002060009054906101000a900473ffffffffffffffffffffffffffffffffffffffff169050919050565b620009388484848462000ab360201b620013b61760201c565b60018111156200097f576040517f08c379a0000000000000000000000000000000000000000000000000000000008152600401620009769062001878565b60405180910390fd5b6000829050600073ffffffffffffffffffffffffffffffffffffffff168573ffffffffffffffffffffffffffffffffffffffff1603620009d057620009ca8162000be060201b60201c565b62000a18565b8373ffffffffffffffffffffffffffffffffffffffff168573ffffffffffffffffffffffffffffffffffffffff161462000a175762000a16858262000c2960201b60201c565b5b5b600073ffffffffffffffffffffffffffffffffffffffff168473ffffffffffffffffffffffffffffffffffffffff160362000a645762000a5e8162000da660201b60201c565b62000aac565b8473ffffffffffffffffffffffffffffffffffffffff168473ffffffffffffffffffffffffffffffffffffffff161462000aab5762000aaa848262000e8260201b60201c565b5b5b5050505050565b600181111562000bda57600073ffffffffffffffffffffffffffffffffffffffff168473ffffffffffffffffffffffffffffffffffffffff161462000b4b5780600360008673ffffffffffffffffffffffffffffffffffffffff1673ffffffffffffffffffffffffffffffffffffffff168152602001908152602001600020600082825462000b43919062001358565b925050819055505b600073ffffffffffffffffffffffffffffffffffffffff168373ffffffffffffffffffffffffffffffffffffffff161462000bd95780600360008573ffffffffffffffffffffffffffffffffffffffff1673ffffffffffffffffffffffffffffffffffffffff168152602001908152602001600020600082825462000bd191906200189a565b925050819055505b5b50505050565b6008805490506009600083815260200190815260200160002081905550600881908060018154018082558091505060019003906000526020600020016000909190919091505550565b6000600162000c438462000f0e60201b62000c021760201c565b62000c4f919062001358565b905060006007600084815260200190815260200160002054905081811462000d35576000600660008673ffffffffffffffffffffffffffffffffffffffff1673ffffffffffffffffffffffffffffffffffffffff168152602001908152602001600020600084815260200190815260200160002054905080600660008773ffffffffffffffffffffffffffffffffffffffff1673ffffffffffffffffffffffffffffffffffffffff168152602001908152602001600020600084815260200190815260200160002081905550816007600083815260200190815260200160002081905550505b6007600084815260200190815260200160002060009055600660008573ffffffffffffffffffffffffffffffffffffffff1673ffffffffffffffffffffffffffffffffffffffff16815260200190815260200160002060008381526020019081526020016000206000905550505050565b6000600160088054905062000dbc919062001358565b905060006009600084815260200190815260200160002054905060006008838154811062000def5762000dee620018d5565b5b90600052602060002001549050806008838154811062000e145762000e13620018d5565b5b90600052602060002001819055508160096000838152602001908152602001600020819055506009600085815260200190815260200160002060009055600880548062000e665762000e6562001904565b5b6001900381819060005260206000200160009055905550505050565b600062000e9a8362000f0e60201b62000c021760201c565b905081600660008573ffffffffffffffffffffffffffffffffffffffff1673ffffffffffffffffffffffffffffffffffffffff168152602001908152602001600020600083815260200190815260200160002081905550806007600084815260200190815260200160002081905550505050565b60008073ffffffffffffffffffffffffffffffffffffffff168273ffffffffffffffffffffffffffffffffffffffff160362000f81576040517f08c379a000000000000000000000000000000000000000000000000000000000815260040162000f7890620019a9565b60405180910390fd5b600360008373ffffffffffffffffffffffffffffffffffffffff1673ffffffffffffffffffffffffffffffffffffffff168152602001908152602001600020549050919050565b600081519050919050565b7f4e487b7100000000000000000000000000000000000000000000000000000000600052604160045260246000fd5b7f4e487b7100000000000000000000000000000000000000000000000000000000600052602260045260246000fd5b600060028204905060018216806200104a57607f821691505b60208210810362001060576200105f62001002565b5b50919050565b60008190508160005260206000209050919050565b60006020601f8301049050919050565b600082821b905092915050565b600060088302620010ca7fffffffffffffffffffffffffffffffffffffffffffffffffffffffffffffffff826200108b565b620010d686836200108b565b95508019841693508086168417925050509392505050565b6000819050919050565b6000819050919050565b6000620011236200111d6200111784620010ee565b620010f8565b620010ee565b9050919050565b6000819050919050565b6200113f8362001102565b620011576200114e826200112a565b84845462001098565b825550505050565b600090565b6200116e6200115f565b6200117b81848462001134565b505050565b5b81811015620011a3576200119760008262001164565b60018101905062001181565b5050565b601f821115620011f257620011bc8162001066565b620011c7846200107b565b81016020851015620011d7578190505b620011ef620011e6856200107b565b83018262001180565b50505b505050565b600082821c905092915050565b60006200121760001984600802620011f7565b1980831691505092915050565b600062001232838362001204565b9150826002028217905092915050565b6200124d8262000fc8565b67ffffffffffffffff81111562001269576200126862000fd3565b5b62001275825462001031565b62001282828285620011a7565b600060209050601f831160018114620012ba5760008415620012a5578287015190505b620012b1858262001224565b86555062001321565b601f198416620012ca8662001066565b60005b82811015620012f457848901518255600182019150602085019450602081019050620012cd565b8683101562001314578489015162001310601f89168262001204565b8355505b6001600288020188555050505b505050505050565b7f4e487b7100000000000000000000000000000000000000000000000000000000600052601160045260246000fd5b60006200136582620010ee565b91506200137283620010ee565b92508282039050818111156200138d576200138c62001329565b5b92915050565b6000620013a082620010ee565b9150620013ad83620010ee565b9250828202620013bd81620010ee565b91508282048414831517620013d757620013d662001329565b5b5092915050565b6000620013eb82620010ee565b91507fffffffffffffffffffffffffffffffffffffffffffffffffffffffffffffffff820362001420576200141f62001329565b5b600182019050919050565b600082825260208201905092915050565b7f4552433732313a207472616e7366657220746f206e6f6e20455243373231526560008201527f63656976657220696d706c656d656e7465720000000000000000000000000000602082015250565b60006200149a6032836200142b565b9150620014a7826200143c565b604082019050919050565b60006020820190508181036000830152620014cd816200148b565b9050919050565b7f4552433732313a206d696e7420746f20746865207a65726f2061646472657373600082015250565b60006200150c6020836200142b565b91506200151982620014d4565b602082019050919050565b600060208201905081810360008301526200153f81620014fd565b9050919050565b7f4552433732313a20746f6b656e20616c7265616479206d696e74656400000000600082015250565b60006200157e601c836200142b565b91506200158b8262001546565b602082019050919050565b60006020820190508181036000830152620015b1816200156f565b9050919050565b600073ffffffffffffffffffffffffffffffffffffffff82169050919050565b6000620015e582620015b8565b9050919050565b620015f781620015d8565b82525050565b6200160881620010ee565b82525050565b600081519050919050565b600082825260208201905092915050565b60005b838110156200164a5780820151818401526020810190506200162d565b60008484015250505050565b6000601f19601f8301169050919050565b600062001674826200160e565b62001680818562001619565b9350620016928185602086016200162a565b6200169d8162001656565b840191505092915050565b6000608082019050620016bf6000830187620015ec565b620016ce6020830186620015ec565b620016dd6040830185620015fd565b8181036060830152620016f1818462001667565b905095945050505050565b600080fd5b60007fffffffff0000000000000000000000000000000000000000000000000000000082169050919050565b620017388162001701565b81146200174457600080fd5b50565b60008151905062001758816200172d565b92915050565b600060208284031215620017775762001776620016fc565b5b6000620017878482850162001747565b91505092915050565b7f556e61626c6520746f207472616e736665720000000000000000000000000000600082015250565b6000620017c86012836200142b565b9150620017d58262001790565b602082019050919050565b60006020820190508181036000830152620017fb81620017b9565b9050919050565b7f455243373231456e756d657261626c653a20636f6e736563757469766520747260008201527f616e7366657273206e6f7420737570706f727465640000000000000000000000602082015250565b6000620018606035836200142b565b91506200186d8262001802565b604082019050919050565b60006020820190508181036000830152620018938162001851565b9050919050565b6000620018a782620010ee565b9150620018b483620010ee565b9250828201905080821115620018cf57620018ce62001329565b5b92915050565b7f4e487b7100000000000000000000000000000000000000000000000000000000600052603260045260246000fd5b7f4e487b7100000000000000000000000000000000000000000000000000000000600052603160045260246000fd5b7f4552433732313a2061646472657373207a65726f206973206e6f74206120766160008201527f6c6964206f776e65720000000000000000000000000000000000000000000000602082015250565b6000620019916029836200142b565b91506200199e8262001933565b604082019050919050565b60006020820190508181036000830152620019c48162001982565b9050919050565b615aa680620019db6000396000f3fe608060405234801561001057600080fd5b50600436106101c35760003560e01c80636352211e116100f9578063a574cea411610097578063d539139311610071578063d53913931461053c578063d547741f1461055a578063d67b06c114610576578063e985e9c514610592576101c3565b8063a574cea4146104c0578063b88d4fde146104f0578063c87b56dd1461050c576101c3565b806391d14854116100d357806391d148541461043857806395d89b4114610468578063a217fddf14610486578063a22cb465146104a4576101c3565b80636352211e146103ba57806370a08231146103ea5780637284e4161461041a576101c3565b8063248a9ca31161016657806336568abe1161014057806336568abe1461033657806340d097c31461035257806342842e0e1461036e5780634f6ccce71461038a576101c3565b8063248a9ca3146102ba5780632f2ff15d146102ea5780632f745c5914610306576101c3565b8063081812fc116101a2578063081812fc14610234578063095ea7b31461026457806318160ddd1461028057806323b872dd1461029e576101c3565b80628bfb00146101c857806301ffc9a7146101e657806306fdde0314610216575b600080fd5b6101d06105c2565b6040516101dd9190612ed5565b60405180910390f35b61020060048036038101906101fb9190612f63565b6105fb565b60405161020d9190612fab565b60405180910390f35b61021e61060d565b60405161022b9190612ed5565b60405180910390f35b61024e60048036038101906102499190612ffc565b61069f565b60405161025b919061306a565b60405180910390f35b61027e600480360381019061027991906130b1565b6106e5565b005b6102886107fc565b6040516102959190613100565b60405180910390f35b6102b860048036038101906102b3919061311b565b610809565b005b6102d460048036038101906102cf91906131a4565b610869565b6040516102e191906131e0565b60405180910390f35b61030460048036038101906102ff91906131fb565b610889565b005b610320600480360381019061031b91906130b1565b6108aa565b60405161032d9190613100565b60405180910390f35b610350600480360381019061034b91906131fb565b61094f565b005b61036c6004803603810190610367919061323b565b6109d2565b005b6103886004803603810190610383919061311b565b610aeb565b005b6103a4600480360381019061039f9190612ffc565b610b0b565b6040516103b19190613100565b60405180910390f35b6103d460048036038101906103cf9190612ffc565b610b7c565b6040516103e1919061306a565b60405180910390f35b61040460048036038101906103ff919061323b565b610c02565b6040516104119190613100565b60405180910390f35b610422610cb9565b60405161042f9190612ed5565b60405180910390f35b610452600480360381019061044d91906131fb565b610cf2565b60405161045f9190612fab565b60405180910390f35b610470610d5d565b60405161047d9190612ed5565b60405180910390f35b61048e610def565b60405161049b91906131e0565b60405180910390f35b6104be60048036038101906104b99190613294565b610df6565b005b6104da60048036038101906104d59190612ffc565b610e0c565b6040516104e79190613321565b60405180910390f35b61050a60048036038101906105059190613471565b610e99565b005b61052660048036038101906105219190612ffc565b610efb565b6040516105339190612ed5565b60405180910390f35b6105446110e5565b60405161055191906131e0565b60405180910390f35b610574600480360381019061056f91906131fb565b611109565b005b610590600480360381019061058b91906135bc565b61112a565b005b6105ac60048036038101906105a79190613605565b6111a1565b6040516105b99190612fab565b60405180910390f35b6040518060400160405280601381526020017f536d61727420436f6e747261637420426f6f6b0000000000000000000000000081525081565b6000610606826114dc565b9050919050565b60606000805461061c90613674565b80601f016020809104026020016040519081016040528092919081815260200182805461064890613674565b80156106955780601f1061066a57610100808354040283529160200191610695565b820191906000526020600020905b81548152906001019060200180831161067857829003601f168201915b5050505050905090565b60006106aa82611556565b6004600083815260200190815260200160002060009054906101000a900473ffffffffffffffffffffffffffffffffffffffff169050919050565b60006106f082610b7c565b90508073ffffffffffffffffffffffffffffffffffffffff168373ffffffffffffffffffffffffffffffffffffffff1603610760576040517f08c379a000000000000000000000000000000000000000000000000000000000815260040161075790613717565b60405180910390fd5b8073ffffffffffffffffffffffffffffffffffffffff1661077f6115a1565b73ffffffffffffffffffffffffffffffffffffffff1614806107ae57506107ad816107a86115a1565b6111a1565b5b6107ed576040517f08c379a00000000000000000000000000000000000000000000000000000000081526004016107e4906137a9565b60405180910390fd5b6107f783836115a9565b505050565b6000600880549050905090565b61081a6108146115a1565b82611662565b610859576040517f08c379a00000000000000000000000000000000000000000000000000000000081526004016108509061383b565b60405180910390fd5b6108648383836116f7565b505050565b6000600a6000838152602001908152602001600020600101549050919050565b61089282610869565b61089b816119f0565b6108a58383611a04565b505050565b60006108b583610c02565b82106108f6576040517f08c379a00000000000000000000000000000000000000000000000000000000081526004016108ed906138cd565b60405180910390fd5b600660008473ffffffffffffffffffffffffffffffffffffffff1673ffffffffffffffffffffffffffffffffffffffff168152602001908152602001600020600083815260200190815260200160002054905092915050565b6109576115a1565b73ffffffffffffffffffffffffffffffffffffffff168173ffffffffffffffffffffffffffffffffffffffff16146109c4576040517f08c379a00000000000000000000000000000000000000000000000000000000081526004016109bb9061395f565b60405180910390fd5b6109ce8282611ae5565b5050565b7f9f2df0fed2c77648de5860a4cc508cd0818c85b8b8a1ab4ceeef8d981c8956a66109fc816119f0565b6000610a08600b611bc7565b9050610a14600b611bd5565b60008143404286604051602001610a2e9493929190613a09565b6040516020818303038152906040528051906020012060001c905060405180604001604052808573ffffffffffffffffffffffffffffffffffffffff16815260200182815250600c600084815260200190815260200160002060008201518160000160006101000a81548173ffffffffffffffffffffffffffffffffffffffff021916908373ffffffffffffffffffffffffffffffffffffffff16021790555060208201518160010155905050610ae58483611beb565b50505050565b610b0683838360405180602001604052806000815250610e99565b505050565b6000610b156107fc565b8210610b56576040517f08c379a0000000000000000000000000000000000000000000000000000000008152600401610b4d90613ac9565b60405180910390fd5b60088281548110610b6a57610b69613ae9565b5b90600052602060002001549050919050565b600080610b8883611c09565b9050600073ffffffffffffffffffffffffffffffffffffffff168173ffffffffffffffffffffffffffffffffffffffff1603610bf9576040517f08c379a0000000000000000000000000000000000000000000000000000000008152600401610bf090613b64565b60405180910390fd5b80915050919050565b60008073ffffffffffffffffffffffffffffffffffffffff168273ffffffffffffffffffffffffffffffffffffffff1603610c72576040517f08c379a0000000000000000000000000000000000000000000000000000000008152600401610c6990613bf6565b60405180910390fd5b600360008373ffffffffffffffffffffffffffffffffffffffff1673ffffffffffffffffffffffffffffffffffffffff168152602001908152602001600020549050919050565b6040518060400160405280601781526020017f536d61727420436f6e747261637420426f6f6b204e465400000000000000000081525081565b6000600a600084815260200190815260200160002060000160008373ffffffffffffffffffffffffffffffffffffffff1673ffffffffffffffffffffffffffffffffffffffff16815260200190815260200160002060009054906101000a900460ff16905092915050565b606060018054610d6c90613674565b80601f0160208091040260200160405190810160405280929190818152602001828054610d9890613674565b8015610de55780601f10610dba57610100808354040283529160200191610de5565b820191906000526020600020905b815481529060010190602001808311610dc857829003601f168201915b5050505050905090565b6000801b81565b610e08610e016115a1565b8383611c46565b5050565b610e14612e15565b600c60008381526020019081526020016000206040518060400160405290816000820160009054906101000a900473ffffffffffffffffffffffffffffffffffffffff1673ffffffffffffffffffffffffffffffffffffffff1673ffffffffffffffffffffffffffffffffffffffff1681526020016001820154815250509050919050565b610eaa610ea46115a1565b83611662565b610ee9576040517f08c379a0000000000000000000000000000000000000000000000000000000008152600401610ee09061383b565b60405180910390fd5b610ef584848484611db2565b50505050565b60606000600c60008481526020019081526020016000206040518060400160405290816000820160009054906101000a900473ffffffffffffffffffffffffffffffffffffffff1673ffffffffffffffffffffffffffffffffffffffff1673ffffffffffffffffffffffffffffffffffffffff16815260200160018201548152505090506000610f9b610f9683600001518460200151611e0e565b611e7a565b90506000610fac8360200151611ff2565b610feb576040518060400160405280600681526020017f636f6d6d6f6e0000000000000000000000000000000000000000000000000000815250611022565b6040518060400160405280600481526020017f72617265000000000000000000000000000000000000000000000000000000008152505b90506110bc6040518060400160405280601381526020017f536d61727420436f6e747261637420426f6f6b000000000000000000000000008152506040518060400160405280601781526020017f536d61727420436f6e747261637420426f6f6b204e465400000000000000000081525084846040516020016110a89493929190613e40565b604051602081830303815290604052611e7a565b6040516020016110cc9190613f0c565b6040516020818303038152906040529350505050919050565b7f9f2df0fed2c77648de5860a4cc508cd0818c85b8b8a1ab4ceeef8d981c8956a681565b61111282610869565b61111b816119f0565b6111258383611ae5565b505050565b7f9f2df0fed2c77648de5860a4cc508cd0818c85b8b8a1ab4ceeef8d981c8956a6611154816119f0565b60005b82518160ff16101561119c57611189838260ff168151811061117c5761117b613ae9565b5b60200260200101516109d2565b808061119490613f6a565b915050611157565b505050565b6000600560008473ffffffffffffffffffffffffffffffffffffffff1673ffffffffffffffffffffffffffffffffffffffff16815260200190815260200160002060008373ffffffffffffffffffffffffffffffffffffffff1673ffffffffffffffffffffffffffffffffffffffff16815260200190815260200160002060009054906101000a900460ff16905092915050565b6000808273ffffffffffffffffffffffffffffffffffffffff163b119050919050565b611264848484846113b6565b60018111156112a8576040517f08c379a000000000000000000000000000000000000000000000000000000000815260040161129f90614005565b60405180910390fd5b6000829050600073ffffffffffffffffffffffffffffffffffffffff168573ffffffffffffffffffffffffffffffffffffffff16036112ef576112ea8161200a565b61132e565b8373ffffffffffffffffffffffffffffffffffffffff168573ffffffffffffffffffffffffffffffffffffffff161461132d5761132c8582612053565b5b5b600073ffffffffffffffffffffffffffffffffffffffff168473ffffffffffffffffffffffffffffffffffffffff16036113705761136b816121c0565b6113af565b8473ffffffffffffffffffffffffffffffffffffffff168473ffffffffffffffffffffffffffffffffffffffff16146113ae576113ad8482612291565b5b5b5050505050565b60018111156114d657600073ffffffffffffffffffffffffffffffffffffffff168473ffffffffffffffffffffffffffffffffffffffff161461144a5780600360008673ffffffffffffffffffffffffffffffffffffffff1673ffffffffffffffffffffffffffffffffffffffff16815260200190815260200160002060008282546114429190614025565b925050819055505b600073ffffffffffffffffffffffffffffffffffffffff168373ffffffffffffffffffffffffffffffffffffffff16146114d55780600360008573ffffffffffffffffffffffffffffffffffffffff1673ffffffffffffffffffffffffffffffffffffffff16815260200190815260200160002060008282546114cd9190614059565b925050819055505b5b50505050565b60007f7965db0b000000000000000000000000000000000000000000000000000000007bffffffffffffffffffffffffffffffffffffffffffffffffffffffff1916827bffffffffffffffffffffffffffffffffffffffffffffffffffffffff1916148061154f575061154e82612310565b5b9050919050565b61155f8161238a565b61159e576040517f08c379a000000000000000000000000000000000000000000000000000000000815260040161159590613b64565b60405180910390fd5b50565b600033905090565b816004600083815260200190815260200160002060006101000a81548173ffffffffffffffffffffffffffffffffffffffff021916908373ffffffffffffffffffffffffffffffffffffffff160217905550808273ffffffffffffffffffffffffffffffffffffffff1661161c83610b7c565b73ffffffffffffffffffffffffffffffffffffffff167f8c5be1e5ebec7d5bd14f71427d1e84f3dd0314c0f7b2291e5b200ac8c7c3b92560405160405180910390a45050565b60008061166e83610b7c565b90508073ffffffffffffffffffffffffffffffffffffffff168473ffffffffffffffffffffffffffffffffffffffff1614806116b057506116af81856111a1565b5b806116ee57508373ffffffffffffffffffffffffffffffffffffffff166116d68461069f565b73ffffffffffffffffffffffffffffffffffffffff16145b91505092915050565b8273ffffffffffffffffffffffffffffffffffffffff1661171782610b7c565b73ffffffffffffffffffffffffffffffffffffffff161461176d576040517f08c379a0000000000000000000000000000000000000000000000000000000008152600401611764906140ff565b60405180910390fd5b600073ffffffffffffffffffffffffffffffffffffffff168273ffffffffffffffffffffffffffffffffffffffff16036117dc576040517f08c379a00000000000000000000000000000000000000000000000000000000081526004016117d390614191565b60405180910390fd5b6117e983838360016123cb565b8273ffffffffffffffffffffffffffffffffffffffff1661180982610b7c565b73ffffffffffffffffffffffffffffffffffffffff161461185f576040517f08c379a0000000000000000000000000000000000000000000000000000000008152600401611856906140ff565b60405180910390fd5b6004600082815260200190815260200160002060006101000a81549073ffffffffffffffffffffffffffffffffffffffff02191690556001600360008573ffffffffffffffffffffffffffffffffffffffff1673ffffffffffffffffffffffffffffffffffffffff168152602001908152602001600020600082825403925050819055506001600360008473ffffffffffffffffffffffffffffffffffffffff1673ffffffffffffffffffffffffffffffffffffffff16815260200190815260200160002060008282540192505081905550816002600083815260200190815260200160002060006101000a81548173ffffffffffffffffffffffffffffffffffffffff021916908373ffffffffffffffffffffffffffffffffffffffff160217905550808273ffffffffffffffffffffffffffffffffffffffff168473ffffffffffffffffffffffffffffffffffffffff167fddf252ad1be2c89b69c2b068fc378daa952ba7f163c4a11628f55a4df523b3ef60405160405180910390a46119eb838383600161244c565b505050565b611a01816119fc6115a1565b612452565b50565b611a0e8282610cf2565b611ae1576001600a600084815260200190815260200160002060000160008373ffffffffffffffffffffffffffffffffffffffff1673ffffffffffffffffffffffffffffffffffffffff16815260200190815260200160002060006101000a81548160ff021916908315150217905550611a866115a1565b73ffffffffffffffffffffffffffffffffffffffff168173ffffffffffffffffffffffffffffffffffffffff16837f2f8788117e7eff1d82e926ec794901d17c78024a50270940304540a733656f0d60405160405180910390a45b5050565b611aef8282610cf2565b15611bc3576000600a600084815260200190815260200160002060000160008373ffffffffffffffffffffffffffffffffffffffff1673ffffffffffffffffffffffffffffffffffffffff16815260200190815260200160002060006101000a81548160ff021916908315150217905550611b686115a1565b73ffffffffffffffffffffffffffffffffffffffff168173ffffffffffffffffffffffffffffffffffffffff16837ff6391f5c32d9c69d2a47ea670b442974b53935d1edc7fd64eb21e047a839171b60405160405180910390a45b5050565b600081600001549050919050565b6001816000016000828254019250508190555050565b611c058282604051806020016040528060008152506124d7565b5050565b60006002600083815260200190815260200160002060009054906101000a900473ffffffffffffffffffffffffffffffffffffffff169050919050565b8173ffffffffffffffffffffffffffffffffffffffff168373ffffffffffffffffffffffffffffffffffffffff1603611cb4576040517f08c379a0000000000000000000000000000000000000000000000000000000008152600401611cab906141fd565b60405180910390fd5b80600560008573ffffffffffffffffffffffffffffffffffffffff1673ffffffffffffffffffffffffffffffffffffffff16815260200190815260200160002060008473ffffffffffffffffffffffffffffffffffffffff1673ffffffffffffffffffffffffffffffffffffffff16815260200190815260200160002060006101000a81548160ff0219169083151502179055508173ffffffffffffffffffffffffffffffffffffffff168373ffffffffffffffffffffffffffffffffffffffff167f17307eab39ab6107e8899845ad3d59bd9653f200f220920489ca2b5937696c3183604051611da59190612fab565b60405180910390a3505050565b611dbd8484846116f7565b611dc984848484612532565b611e08576040517f08c379a0000000000000000000000000000000000000000000000000000000008152600401611dff9061428f565b60405180910390fd5b50505050565b60606000611e338473ffffffffffffffffffffffffffffffffffffffff1660006126b9565b90506000611e428460886126b9565b90508181611e4f866126da565b604051602001611e6193929190615057565b6040516020818303038152906040529250505092915050565b60606000825103611e9c57604051806020016040528060008152509050611fed565b6000604051806060016040528060408152602001615a316040913990506000600360028551611ecb9190614059565b611ed591906151d5565b6004611ee19190615206565b90506000602082611ef29190614059565b67ffffffffffffffff811115611f0b57611f0a613346565b5b6040519080825280601f01601f191660200182016040528015611f3d5781602001600182028036833780820191505090505b509050818152600183018586518101602084015b81831015611fac576003830192508251603f8160121c168501518253600182019150603f81600c1c168501518253600182019150603f8160061c168501518253600182019150603f8116850151825360018201915050611f51565b600389510660018114611fc65760028114611fd657611fe1565b613d3d60f01b6002830352611fe1565b603d60f81b60018303525b50505050508093505050505b919050565b6000806031836120029190615248565b149050919050565b6008805490506009600083815260200190815260200160002081905550600881908060018154018082558091505060019003906000526020600020016000909190919091505550565b6000600161206084610c02565b61206a9190614025565b905060006007600084815260200190815260200160002054905081811461214f576000600660008673ffffffffffffffffffffffffffffffffffffffff1673ffffffffffffffffffffffffffffffffffffffff168152602001908152602001600020600084815260200190815260200160002054905080600660008773ffffffffffffffffffffffffffffffffffffffff1673ffffffffffffffffffffffffffffffffffffffff168152602001908152602001600020600084815260200190815260200160002081905550816007600083815260200190815260200160002081905550505b6007600084815260200190815260200160002060009055600660008573ffffffffffffffffffffffffffffffffffffffff1673ffffffffffffffffffffffffffffffffffffffff16815260200190815260200160002060008381526020019081526020016000206000905550505050565b600060016008805490506121d49190614025565b905060006009600084815260200190815260200160002054905060006008838154811061220457612203613ae9565b5b90600052602060002001549050806008838154811061222657612225613ae9565b5b90600052602060002001819055508160096000838152602001908152602001600020819055506009600085815260200190815260200160002060009055600880548061227557612274615279565b5b6001900381819060005260206000200160009055905550505050565b600061229c83610c02565b905081600660008573ffffffffffffffffffffffffffffffffffffffff1673ffffffffffffffffffffffffffffffffffffffff168152602001908152602001600020600083815260200190815260200160002081905550806007600084815260200190815260200160002081905550505050565b60007f780e9d63000000000000000000000000000000000000000000000000000000007bffffffffffffffffffffffffffffffffffffffffffffffffffffffff1916827bffffffffffffffffffffffffffffffffffffffffffffffffffffffff19161480612383575061238282612727565b5b9050919050565b60008073ffffffffffffffffffffffffffffffffffffffff166123ac83611c09565b73ffffffffffffffffffffffffffffffffffffffff1614159050919050565b600073ffffffffffffffffffffffffffffffffffffffff168473ffffffffffffffffffffffffffffffffffffffff161461243a576040517f08c379a0000000000000000000000000000000000000000000000000000000008152600401612431906152f4565b60405180910390fd5b61244684848484611258565b50505050565b50505050565b61245c8282610cf2565b6124d35761246981612809565b6124778360001c6020612836565b6040516020016124889291906153ac565b6040516020818303038152906040526040517f08c379a00000000000000000000000000000000000000000000000000000000081526004016124ca9190612ed5565b60405180910390fd5b5050565b6124e18383612a72565b6124ee6000848484612532565b61252d576040517f08c379a00000000000000000000000000000000000000000000000000000000081526004016125249061428f565b60405180910390fd5b505050565b60006125538473ffffffffffffffffffffffffffffffffffffffff16611235565b156126ac578373ffffffffffffffffffffffffffffffffffffffff1663150b7a0261257c6115a1565b8786866040518563ffffffff1660e01b815260040161259e949392919061543b565b6020604051808303816000875af19250505080156125da57506040513d601f19601f820116820180604052508101906125d7919061549c565b60015b61265c573d806000811461260a576040519150601f19603f3d011682016040523d82523d6000602084013e61260f565b606091505b506000815103612654576040517f08c379a000000000000000000000000000000000000000000000000000000000815260040161264b9061428f565b60405180910390fd5b805181602001fd5b63150b7a0260e01b7bffffffffffffffffffffffffffffffffffffffffffffffffffffffff1916817bffffffffffffffffffffffffffffffffffffffffffffffffffffffff1916149150506126b1565b600190505b949350505050565b60606126d260038385901c612c8f90919063ffffffff16565b905092915050565b60606126e582611ff2565b1561270f576040516020016126f990615882565b6040516020818303038152906040529050612722565b6040518060200160405280600081525090505b919050565b60007f80ac58cd000000000000000000000000000000000000000000000000000000007bffffffffffffffffffffffffffffffffffffffffffffffffffffffff1916827bffffffffffffffffffffffffffffffffffffffffffffffffffffffff191614806127f257507f5b5e139f000000000000000000000000000000000000000000000000000000007bffffffffffffffffffffffffffffffffffffffffffffffffffffffff1916827bffffffffffffffffffffffffffffffffffffffffffffffffffffffff1916145b80612802575061280182612dab565b5b9050919050565b606061282f8273ffffffffffffffffffffffffffffffffffffffff16601460ff16612836565b9050919050565b6060600060028360026128499190615206565b6128539190614059565b67ffffffffffffffff81111561286c5761286b613346565b5b6040519080825280601f01601f19166020018201604052801561289e5781602001600182028036833780820191505090505b5090507f3000000000000000000000000000000000000000000000000000000000000000816000815181106128d6576128d5613ae9565b5b60200101907effffffffffffffffffffffffffffffffffffffffffffffffffffffffffffff1916908160001a9053507f78000000000000000000000000000000000000000000000000000000000000008160018151811061293a57612939613ae9565b5b60200101907effffffffffffffffffffffffffffffffffffffffffffffffffffffffffffff1916908160001a9053506000600184600261297a9190615206565b6129849190614059565b90505b6001811115612a24577f3031323334353637383961626364656600000000000000000000000000000000600f8616601081106129c6576129c5613ae9565b5b1a60f81b8282815181106129dd576129dc613ae9565b5b60200101907effffffffffffffffffffffffffffffffffffffffffffffffffffffffffffff1916908160001a905350600485901c945080612a1d906158c3565b9050612987565b5060008414612a68576040517f08c379a0000000000000000000000000000000000000000000000000000000008152600401612a5f90615938565b60405180910390fd5b8091505092915050565b600073ffffffffffffffffffffffffffffffffffffffff168273ffffffffffffffffffffffffffffffffffffffff1603612ae1576040517f08c379a0000000000000000000000000000000000000000000000000000000008152600401612ad8906159a4565b60405180910390fd5b612aea8161238a565b15612b2a576040517f08c379a0000000000000000000000000000000000000000000000000000000008152600401612b2190615a10565b60405180910390fd5b612b386000838360016123cb565b612b418161238a565b15612b81576040517f08c379a0000000000000000000000000000000000000000000000000000000008152600401612b7890615a10565b60405180910390fd5b6001600360008473ffffffffffffffffffffffffffffffffffffffff1673ffffffffffffffffffffffffffffffffffffffff16815260200190815260200160002060008282540192505081905550816002600083815260200190815260200160002060006101000a81548173ffffffffffffffffffffffffffffffffffffffff021916908373ffffffffffffffffffffffffffffffffffffffff160217905550808273ffffffffffffffffffffffffffffffffffffffff16600073ffffffffffffffffffffffffffffffffffffffff167fddf252ad1be2c89b69c2b068fc378daa952ba7f163c4a11628f55a4df523b3ef60405160405180910390a4612c8b60008383600161244c565b5050565b60606000826002612ca09190615206565b67ffffffffffffffff811115612cb957612cb8613346565b5b6040519080825280601f01601f191660200182016040528015612ceb5781602001600182028036833780820191505090505b5090506000815190505b6000811115612da0577f3031323334353637383961626364656600000000000000000000000000000000600f861660108110612d3457612d33613ae9565b5b1a60f81b82600183612d469190614025565b81518110612d5757612d56613ae9565b5b60200101907effffffffffffffffffffffffffffffffffffffffffffffffffffffffffffff1916908160001a905350600485901c94508080612d98906158c3565b915050612cf5565b508091505092915050565b60007f01ffc9a7000000000000000000000000000000000000000000000000000000007bffffffffffffffffffffffffffffffffffffffffffffffffffffffff1916827bffffffffffffffffffffffffffffffffffffffffffffffffffffffff1916149050919050565b6040518060400160405280600073ffffffffffffffffffffffffffffffffffffffff168152602001600081525090565b600081519050919050565b600082825260208201905092915050565b60005b83811015612e7f578082015181840152602081019050612e64565b60008484015250505050565b6000601f19601f8301169050919050565b6000612ea782612e45565b612eb18185612e50565b9350612ec1818560208601612e61565b612eca81612e8b565b840191505092915050565b60006020820190508181036000830152612eef8184612e9c565b905092915050565b6000604051905090565b600080fd5b600080fd5b60007fffffffff0000000000000000000000000000000000000000000000000000000082169050919050565b612f4081612f0b565b8114612f4b57600080fd5b50565b600081359050612f5d81612f37565b92915050565b600060208284031215612f7957612f78612f01565b5b6000612f8784828501612f4e565b91505092915050565b60008115159050919050565b612fa581612f90565b82525050565b6000602082019050612fc06000830184612f9c565b92915050565b6000819050919050565b612fd981612fc6565b8114612fe457600080fd5b50565b600081359050612ff681612fd0565b92915050565b60006020828403121561301257613011612f01565b5b600061302084828501612fe7565b91505092915050565b600073ffffffffffffffffffffffffffffffffffffffff82169050919050565b600061305482613029565b9050919050565b61306481613049565b82525050565b600060208201905061307f600083018461305b565b92915050565b61308e81613049565b811461309957600080fd5b50565b6000813590506130ab81613085565b92915050565b600080604083850312156130c8576130c7612f01565b5b60006130d68582860161309c565b92505060206130e785828601612fe7565b9150509250929050565b6130fa81612fc6565b82525050565b600060208201905061311560008301846130f1565b92915050565b60008060006060848603121561313457613133612f01565b5b60006131428682870161309c565b93505060206131538682870161309c565b925050604061316486828701612fe7565b9150509250925092565b6000819050919050565b6131818161316e565b811461318c57600080fd5b50565b60008135905061319e81613178565b92915050565b6000602082840312156131ba576131b9612f01565b5b60006131c88482850161318f565b91505092915050565b6131da8161316e565b82525050565b60006020820190506131f560008301846131d1565b92915050565b6000806040838503121561321257613211612f01565b5b60006132208582860161318f565b92505060206132318582860161309c565b9150509250929050565b60006020828403121561325157613250612f01565b5b600061325f8482850161309c565b91505092915050565b61327181612f90565b811461327c57600080fd5b50565b60008135905061328e81613268565b92915050565b600080604083850312156132ab576132aa612f01565b5b60006132b98582860161309c565b92505060206132ca8582860161327f565b9150509250929050565b6132dd81613049565b82525050565b6132ec81612fc6565b82525050565b60408201600082015161330860008501826132d4565b50602082015161331b60208501826132e3565b50505050565b600060408201905061333660008301846132f2565b92915050565b600080fd5b600080fd5b7f4e487b7100000000000000000000000000000000000000000000000000000000600052604160045260246000fd5b61337e82612e8b565b810181811067ffffffffffffffff8211171561339d5761339c613346565b5b80604052505050565b60006133b0612ef7565b90506133bc8282613375565b919050565b600067ffffffffffffffff8211156133dc576133db613346565b5b6133e582612e8b565b9050602081019050919050565b82818337600083830152505050565b600061341461340f846133c1565b6133a6565b9050828152602081018484840111156134305761342f613341565b5b61343b8482856133f2565b509392505050565b600082601f8301126134585761345761333c565b5b8135613468848260208601613401565b91505092915050565b6000806000806080858703121561348b5761348a612f01565b5b60006134998782880161309c565b94505060206134aa8782880161309c565b93505060406134bb87828801612fe7565b925050606085013567ffffffffffffffff8111156134dc576134db612f06565b5b6134e887828801613443565b91505092959194509250565b600067ffffffffffffffff82111561350f5761350e613346565b5b602082029050602081019050919050565b600080fd5b6000613538613533846134f4565b6133a6565b9050808382526020820190506020840283018581111561355b5761355a613520565b5b835b818110156135845780613570888261309c565b84526020840193505060208101905061355d565b5050509392505050565b600082601f8301126135a3576135a261333c565b5b81356135b3848260208601613525565b91505092915050565b6000602082840312156135d2576135d1612f01565b5b600082013567ffffffffffffffff8111156135f0576135ef612f06565b5b6135fc8482850161358e565b91505092915050565b6000806040838503121561361c5761361b612f01565b5b600061362a8582860161309c565b925050602061363b8582860161309c565b9150509250929050565b7f4e487b7100000000000000000000000000000000000000000000000000000000600052602260045260246000fd5b6000600282049050600182168061368c57607f821691505b60208210810361369f5761369e613645565b5b50919050565b7f4552433732313a20617070726f76616c20746f2063757272656e74206f776e6560008201527f7200000000000000000000000000000000000000000000000000000000000000602082015250565b6000613701602183612e50565b915061370c826136a5565b604082019050919050565b60006020820190508181036000830152613730816136f4565b9050919050565b7f4552433732313a20617070726f76652063616c6c6572206973206e6f7420746f60008201527f6b656e206f776e6572206f7220617070726f76656420666f7220616c6c000000602082015250565b6000613793603d83612e50565b915061379e82613737565b604082019050919050565b600060208201905081810360008301526137c281613786565b9050919050565b7f4552433732313a2063616c6c6572206973206e6f7420746f6b656e206f776e6560008201527f72206f7220617070726f76656400000000000000000000000000000000000000602082015250565b6000613825602d83612e50565b9150613830826137c9565b604082019050919050565b6000602082019050818103600083015261385481613818565b9050919050565b7f455243373231456e756d657261626c653a206f776e657220696e646578206f7560008201527f74206f6620626f756e6473000000000000000000000000000000000000000000602082015250565b60006138b7602b83612e50565b91506138c28261385b565b604082019050919050565b600060208201905081810360008301526138e6816138aa565b9050919050565b7f416363657373436f6e74726f6c3a2063616e206f6e6c792072656e6f756e636560008201527f20726f6c657320666f722073656c660000000000000000000000000000000000602082015250565b6000613949602f83612e50565b9150613954826138ed565b604082019050919050565b600060208201905081810360008301526139788161393c565b9050919050565b6000819050919050565b61399a61399582612fc6565b61397f565b82525050565b6000819050919050565b6139bb6139b68261316e565b6139a0565b82525050565b60008160601b9050919050565b60006139d9826139c1565b9050919050565b60006139eb826139ce565b9050919050565b613a036139fe82613049565b6139e0565b82525050565b6000613a158287613989565b602082019150613a2582866139aa565b602082019150613a358285613989565b602082019150613a4582846139f2565b60148201915081905095945050505050565b7f455243373231456e756d657261626c653a20676c6f62616c20696e646578206f60008201527f7574206f6620626f756e64730000000000000000000000000000000000000000602082015250565b6000613ab3602c83612e50565b9150613abe82613a57565b604082019050919050565b60006020820190508181036000830152613ae281613aa6565b9050919050565b7f4e487b7100000000000000000000000000000000000000000000000000000000600052603260045260246000fd5b7f4552433732313a20696e76616c696420746f6b656e2049440000000000000000600082015250565b6000613b4e601883612e50565b9150613b5982613b18565b602082019050919050565b60006020820190508181036000830152613b7d81613b41565b9050919050565b7f4552433732313a2061646472657373207a65726f206973206e6f74206120766160008201527f6c6964206f776e65720000000000000000000000000000000000000000000000602082015250565b6000613be0602983612e50565b9150613beb82613b84565b604082019050919050565b60006020820190508181036000830152613c0f81613bd3565b9050919050565b600081905092915050565b7f7b226e616d65223a220000000000000000000000000000000000000000000000600082015250565b6000613c57600983613c16565b9150613c6282613c21565b600982019050919050565b6000613c7882612e45565b613c828185613c16565b9350613c92818560208601612e61565b80840191505092915050565b7f222c20226465736372697074696f6e223a220000000000000000000000000000600082015250565b6000613cd4601283613c16565b9150613cdf82613c9e565b601282019050919050565b7f222c2022696d616765223a220000000000000000000000000000000000000000600082015250565b6000613d20600c83613c16565b9150613d2b82613cea565b600c82019050919050565b7f646174613a696d6167652f7376672b786d6c3b6261736536342c000000000000600082015250565b6000613d6c601a83613c16565b9150613d7782613d36565b601a82019050919050565b7f222c202261747472696275746573223a205b7b2274726169745f74797065223a60008201527f202254797065222c20202276616c7565223a2022000000000000000000000000602082015250565b6000613dde603483613c16565b9150613de982613d82565b603482019050919050565b7f227d5d7d00000000000000000000000000000000000000000000000000000000600082015250565b6000613e2a600483613c16565b9150613e3582613df4565b600482019050919050565b6000613e4b82613c4a565b9150613e578287613c6d565b9150613e6282613cc7565b9150613e6e8286613c6d565b9150613e7982613d13565b9150613e8482613d5f565b9150613e908285613c6d565b9150613e9b82613dd1565b9150613ea78284613c6d565b9150613eb282613e1d565b915081905095945050505050565b7f646174613a6170706c69636174696f6e2f6a736f6e3b6261736536342c000000600082015250565b6000613ef6601d83613c16565b9150613f0182613ec0565b601d82019050919050565b6000613f1782613ee9565b9150613f238284613c6d565b915081905092915050565b7f4e487b7100000000000000000000000000000000000000000000000000000000600052601160045260246000fd5b600060ff82169050919050565b6000613f7582613f5d565b915060ff8203613f8857613f87613f2e565b5b600182019050919050565b7f455243373231456e756d657261626c653a20636f6e736563757469766520747260008201527f616e7366657273206e6f7420737570706f727465640000000000000000000000602082015250565b6000613fef603583612e50565b9150613ffa82613f93565b604082019050919050565b6000602082019050818103600083015261401e81613fe2565b9050919050565b600061403082612fc6565b915061403b83612fc6565b925082820390508181111561405357614052613f2e565b5b92915050565b600061406482612fc6565b915061406f83612fc6565b925082820190508082111561408757614086613f2e565b5b92915050565b7f4552433732313a207472616e736665722066726f6d20696e636f72726563742060008201527f6f776e6572000000000000000000000000000000000000000000000000000000602082015250565b60006140e9602583612e50565b91506140f48261408d565b604082019050919050565b60006020820190508181036000830152614118816140dc565b9050919050565b7f4552433732313a207472616e7366657220746f20746865207a65726f2061646460008201527f7265737300000000000000000000000000000000000000000000000000000000602082015250565b600061417b602483612e50565b91506141868261411f565b604082019050919050565b600060208201905081810360008301526141aa8161416e565b9050919050565b7f4552433732313a20617070726f766520746f2063616c6c657200000000000000600082015250565b60006141e7601983612e50565b91506141f2826141b1565b602082019050919050565b60006020820190508181036000830152614216816141da565b9050919050565b7f4552433732313a207472616e7366657220746f206e6f6e20455243373231526560008201527f63656976657220696d706c656d656e7465720000000000000000000000000000602082015250565b6000614279603283612e50565b91506142848261421d565b604082019050919050565b600060208201905081810360008301526142a88161426c565b9050919050565b7f3c7376672076696577426f783d2230203020313030203130302220776964746860008201527f3d2236303022206865696768743d22363030222066696c6c3d226e6f6e65222060208201527f726f6c653d22696d672220786d6c6e733d22687474703a2f2f7777772e77332e60408201527f6f72672f323030302f7376672200000000000000000000000000000000000000606082015250565b6000614357606d83613c16565b9150614362826142af565b606d82019050919050565b7f20786d6c6e733a786c696e6b3d27687474703a2f2f7777772e77332e6f72672f60008201527f313939392f786c696e6b273e0000000000000000000000000000000000000000602082015250565b60006143c9602c83613c16565b91506143d48261436d565b602c82019050919050565b7f3c646566733e203c706174682069643d22746578742d706174682d612220643d60008201527f224d36203320483935204132382032382030203020312039372036205639352060208201527f413238203238203020302031203935203937204835204132382032382030203060408201527f203120332039332056352041323820323820302030203120362033207a22202f60608201527f3e00000000000000000000000000000000000000000000000000000000000000608082015250565b60006144ad608183613c16565b91506144b8826143df565b608182019050919050565b7f3c6c696e6561724772616469656e742069643d226772616469656e742220783160008201527f3d223025222079313d223025222078323d2231303025222079323d223130302560208201527f223e3c73746f70206f66667365743d22302522207374796c653d2273746f702d60408201527f636f6c6f723a2300000000000000000000000000000000000000000000000000606082015250565b600061456b606783613c16565b9150614576826144c3565b606782019050919050565b7f3b73746f702d6f7061636974793a3122202f3e3c73746f70206f66667365743d60008201527f223130302522207374796c653d2273746f702d636f6c6f723a23000000000000602082015250565b60006145dd603a83613c16565b91506145e882614581565b603a82019050919050565b7f3b73746f702d6f7061636974793a3122202f3e3c2f6c696e656172477261646960008201527f656e743e00000000000000000000000000000000000000000000000000000000602082015250565b600061464f602483613c16565b915061465a826145f3565b602482019050919050565b7f3c2f646566733e00000000000000000000000000000000000000000000000000600082015250565b600061469b600783613c16565b91506146a682614665565b600782019050919050565b7f3c726563742077696474683d223130302522206865696768743d22313030252260008201527f2072783d223132222066696c6c3d2275726c28236772616469656e742922202f60208201527f3e00000000000000000000000000000000000000000000000000000000000000604082015250565b6000614733604183613c16565b915061473e826146b1565b604182019050919050565b7f3c726563742077696474683d22393022206865696768743d2239302220783d2260008201527f352220793d2235222072783d22313022207374726f6b652d77696474683d223060208201527f2e3522207374726f6b653d22626c61636b22202f3e0000000000000000000000604082015250565b60006147cb605583613c16565b91506147d682614749565b605582019050919050565b7f3c7465787420746578742d616e63686f723d226d6964646c652220783d22353060008201527f2220793d223330222066696c6c3d22626c61636b2220666f6e742d73697a653d60208201527f22362220666f6e742d7765696768743d22626f6c64223e000000000000000000604082015250565b6000614863605783613c16565b915061486e826147e1565b605782019050919050565b7f536d61727420436f6e7472616374000000000000000000000000000000000000600082015250565b60006148af600e83613c16565b91506148ba82614879565b600e82019050919050565b7f3c2f746578743e00000000000000000000000000000000000000000000000000600082015250565b60006148fb600783613c16565b9150614906826148c5565b600782019050919050565b7f3c7061746820643d224d203430203630204c203630203630204c20353520373060008201527f204c203435203730205a222066696c6c3d2223303030303030222f3e3c70617460208201527f6820643d224d203635203535204c203335203535204c203430203435204c203660408201527f30203435205a222066696c6c3d2223303030303030222f3e0000000000000000606082015250565b60006149b9607883613c16565b91506149c482614911565b607882019050919050565b7f3c7465787420746578742d72656e646572696e673d226f7074696d697a65537060008201527f656564223e000000000000000000000000000000000000000000000000000000602082015250565b6000614a2b602583613c16565b9150614a36826149cf565b602582019050919050565b7f3c74657874506174682073746172744f66667365743d222d313030252220666960008201527f6c6c3d22626c61636b2220666f6e742d66616d696c793d2227436f757269657260208201527f204e6577272c206d6f6e6f73706163652220666f6e742d73697a653d2235707860408201527f2220786c696e6b3a687265663d2223746578742d706174682d61223e00000000606082015250565b6000614ae9607c83613c16565b9150614af482614a41565b607c82019050919050565b7f3c616e696d6174652061646469746976653d2273756d2220617474726962757460008201527f654e616d653d2273746172744f6666736574222066726f6d3d2230252220746f60208201527f3d22313030252220626567696e3d22307322206475723d22387322207265706560408201527f6174436f756e743d22696e646566696e69746522202f3e3c2f7465787450617460608201527f683e000000000000000000000000000000000000000000000000000000000000608082015250565b6000614bcd608283613c16565b9150614bd882614aff565b608282019050919050565b7f3c74657874506174682073746172744f66667365743d223025222066696c6c3d60008201527f22626c61636b2220666f6e742d66616d696c793d2227436f7572696572204e6560208201527f77272c206d6f6e6f73706163652220666f6e742d73697a653d2235707822207860408201527f6c696e6b3a687265663d2223746578742d706174682d61223e536d617274204360608201527f6f6e747261637400000000000000000000000000000000000000000000000000608082015250565b6000614cb1608783613c16565b9150614cbc82614be3565b608782019050919050565b7f3c616e696d6174652061646469746976653d2273756d2220617474726962757460008201527f654e616d653d2273746172744f6666736574222066726f6d3d2230252220746f60208201527f3d22313030252220626567696e3d22307322206475723d22387322207265706560408201527f6174436f756e743d22696e646566696e69746522202f3e203c2f74657874506160608201527f74683e0000000000000000000000000000000000000000000000000000000000608082015250565b6000614d95608383613c16565b9150614da082614cc7565b608382019050919050565b7f3c74657874506174682073746172744f66667365743d22353025222066696c6c60008201527f3d22626c61636b2220666f6e742d66616d696c793d2227436f7572696572204e60208201527f6577272c206d6f6e6f73706163652220666f6e742d73697a653d22357078222060408201527f786c696e6b3a687265663d2223746578742d706174682d61223e000000000000606082015250565b6000614e53607a83613c16565b9150614e5e82614dab565b607a82019050919050565b7f3c74657874506174682073746172744f66667365743d222d353025222066696c60008201527f6c3d22626c61636b2220666f6e742d66616d696c793d2227436f75726965722060208201527f4e6577272c206d6f6e6f73706163652220666f6e742d73697a653d223570782260408201527f20786c696e6b3a687265663d2223746578742d706174682d61223e0000000000606082015250565b6000614f11607b83613c16565b9150614f1c82614e69565b607b82019050919050565b7f3c616e696d6174652061646469746976653d2273756d2220617474726962757460008201527f654e616d653d2273746172744f6666736574222066726f6d3d2230252220746f60208201527f3d22313030252220626567696e3d22307322206475723d22387322207265706560408201527f6174436f756e743d22696e646566696e69746522202f3e3c2f7465787450617460608201527f683e3c2f746578743e0000000000000000000000000000000000000000000000608082015250565b6000614ff5608983613c16565b915061500082614f27565b608982019050919050565b7f3c2f7376673e0000000000000000000000000000000000000000000000000000600082015250565b6000615041600683613c16565b915061504c8261500b565b600682019050919050565b60006150628261434a565b915061506d826143bc565b9150615078826144a0565b91506150838261455e565b915061508f8286613c6d565b915061509a826145d0565b91506150a68285613c6d565b91506150b182614642565b91506150bc8261468e565b91506150c782614726565b91506150d2826147be565b91506150dd82614856565b91506150e8826148a2565b91506150f3826148ee565b91506150fe826149ac565b915061510a8284613c6d565b915061511582614a1e565b915061512082614adc565b915061512b826148a2565b915061513682614bc0565b915061514182614ca4565b915061514c82614d88565b915061515782614e46565b9150615162826148a2565b915061516d82614d88565b915061517882614f04565b9150615183826148a2565b915061518e82614fe8565b915061519982615034565b9150819050949350505050565b7f4e487b7100000000000000000000000000000000000000000000000000000000600052601260045260246000fd5b60006151e082612fc6565b91506151eb83612fc6565b9250826151fb576151fa6151a6565b5b828204905092915050565b600061521182612fc6565b915061521c83612fc6565b925082820261522a81612fc6565b9150828204841483151761524157615240613f2e565b5b5092915050565b600061525382612fc6565b915061525e83612fc6565b92508261526e5761526d6151a6565b5b828206905092915050565b7f4e487b7100000000000000000000000000000000000000000000000000000000600052603160045260246000fd5b7f556e61626c6520746f207472616e736665720000000000000000000000000000600082015250565b60006152de601283612e50565b91506152e9826152a8565b602082019050919050565b6000602082019050818103600083015261530d816152d1565b9050919050565b7f416363657373436f6e74726f6c3a206163636f756e7420000000000000000000600082015250565b600061534a601783613c16565b915061535582615314565b601782019050919050565b7f206973206d697373696e6720726f6c6520000000000000000000000000000000600082015250565b6000615396601183613c16565b91506153a182615360565b601182019050919050565b60006153b78261533d565b91506153c38285613c6d565b91506153ce82615389565b91506153da8284613c6d565b91508190509392505050565b600081519050919050565b600082825260208201905092915050565b600061540d826153e6565b61541781856153f1565b9350615427818560208601612e61565b61543081612e8b565b840191505092915050565b6000608082019050615450600083018761305b565b61545d602083018661305b565b61546a60408301856130f1565b818103606083015261547c8184615402565b905095945050505050565b60008151905061549681612f37565b92915050565b6000602082840312156154b2576154b1612f01565b5b60006154c084828501615487565b91505092915050565b7f3c672066696c6c3d226e6f6e6522207374726f6b653d2277686974652220737460008201527f726f6b652d77696474683d22302e35223e000000000000000000000000000000602082015250565b6000615525603183613c16565b9150615530826154c9565b603182019050919050565b7f3c636972636c652063783d223730222063793d2238302220723d2234223e3c6160008201527f6e696d617465206174747269627574654e616d653d2272222076616c7565733d60208201527f22343b323b3422206475723d2233732220726570656174436f756e743d22696e60408201527f646566696e69746522202f3e3c2f636972636c653e0000000000000000000000606082015250565b60006155e3607583613c16565b91506155ee8261553b565b607582019050919050565b7f3c636972636c652063783d223730222063793d2238302220723d2231223e3c6160008201527f6e696d617465206174747269627574654e616d653d2272222076616c7565733d60208201527f22323b313b3222206475723d2232732220726570656174436f756e743d22696e60408201527f646566696e69746522202f3e3c2f636972636c653e0000000000000000000000606082015250565b60006156a1607583613c16565b91506156ac826155f9565b607582019050919050565b7f3c706f6c79676f6e20706f696e74733d2236392c37352037332c37352037312c60008201527f3731223e3c616e696d6174655472616e73666f726d206174747269627574654e60208201527f616d653d227472616e73666f726d2220747970653d22726f746174652220667260408201527f6f6d3d22302037302038302220746f3d2233363020373020383022206475723d60608201527f2235732220726570656174436f756e743d22696e646566696e69746522202f3e60808201527f3c616e696d617465206174747269627574654e616d653d2266696c6c2220766160a08201527f6c7565733d2277686974653b233239623666363b236162343762633b7768697460c08201527f6522206475723d2232732220726570656174436f756e743d22696e646566696e60e08201527f69746522202f3e3c2f706f6c79676f6e3e00000000000000000000000000000061010082015250565b600061581f61011183613c16565b915061582a826156b7565b61011182019050919050565b7f3c2f673e00000000000000000000000000000000000000000000000000000000600082015250565b600061586c600483613c16565b915061587782615836565b600482019050919050565b600061588d82615518565b9150615898826155d6565b91506158a382615694565b91506158ae82615811565b91506158b98261585f565b9150819050919050565b60006158ce82612fc6565b9150600082036158e1576158e0613f2e565b5b600182039050919050565b7f537472696e67733a20686578206c656e67746820696e73756666696369656e74600082015250565b6000615922602083612e50565b915061592d826158ec565b602082019050919050565b6000602082019050818103600083015261595181615915565b9050919050565b7f4552433732313a206d696e7420746f20746865207a65726f2061646472657373600082015250565b600061598e602083612e50565b915061599982615958565b602082019050919050565b600060208201905081810360008301526159bd81615981565b9050919050565b7f4552433732313a20746f6b656e20616c7265616479206d696e74656400000000600082015250565b60006159fa601c83612e50565b9150615a05826159c4565b602082019050919050565b60006020820190508181036000830152615a29816159ed565b905091905056fe4142434445464748494a4b4c4d4e4f505152535455565758595a6162636465666768696a6b6c6d6e6f707172737475767778797a303132333435363738392b2fa2646970667358221220b8b70f5900e4132bccdee051344e7ffb6f38781435a11f3cce48083f58936c8d64736f6c63430008110033",
  "linkReferences": {},
  "deployedLinkReferences": {}
}